{
  "_format": "hh-sol-artifact-1",
  "contractName": "Keyboards",
  "sourceName": "contracts/Keyboards.sol",
  "abi": [
    {
      "inputs": [
        {
          "internalType": "enum Keyboards.KeyboardKind",
          "name": "_kind",
          "type": "uint8"
        },
        {
          "internalType": "bool",
          "name": "_isPBT",
          "type": "bool"
        },
        {
          "internalType": "string",
          "name": "_filter",
          "type": "string"
        }
      ],
      "name": "create",
      "outputs": [],
      "stateMutability": "nonpayable",
      "type": "function"
    },
    {
      "inputs": [
        {
          "internalType": "uint256",
          "name": "",
          "type": "uint256"
        }
      ],
      "name": "createdKeyboards",
      "outputs": [
        {
          "internalType": "enum Keyboards.KeyboardKind",
          "name": "kind",
          "type": "uint8"
        },
        {
          "internalType": "bool",
          "name": "isPBT",
          "type": "bool"
        },
        {
          "internalType": "string",
          "name": "filter",
          "type": "string"
        },
        {
          "internalType": "address",
          "name": "owner",
          "type": "address"
        }
      ],
      "stateMutability": "view",
      "type": "function"
    },
    {
      "inputs": [],
      "name": "getKeyboards",
      "outputs": [
        {
          "components": [
            {
              "internalType": "enum Keyboards.KeyboardKind",
              "name": "kind",
              "type": "uint8"
            },
            {
              "internalType": "bool",
              "name": "isPBT",
              "type": "bool"
            },
            {
              "internalType": "string",
              "name": "filter",
              "type": "string"
            },
            {
              "internalType": "address",
              "name": "owner",
              "type": "address"
            }
          ],
          "internalType": "struct Keyboards.Keyboard[]",
          "name": "",
          "type": "tuple[]"
        }
      ],
      "stateMutability": "view",
      "type": "function"
    },
    {
      "inputs": [
        {
          "internalType": "uint256",
          "name": "_index",
          "type": "uint256"
        }
      ],
      "name": "tip",
      "outputs": [],
      "stateMutability": "payable",
      "type": "function"
    }
  ],
  "bytecode": "0x608060405234801561001057600080fd5b50610acc806100206000396000f3fe60806040526004361061003f5760003560e01c806352810aa114610044578063778bc8471461006f578063d80ad431146100af578063e8b69bc3146100d8575b600080fd5b34801561005057600080fd5b506100596100f4565b604051610066919061082f565b60405180910390f35b34801561007b57600080fd5b506100966004803603810190610091919061064e565b6102dd565b6040516100a69493929190610851565b60405180910390f35b3480156100bb57600080fd5b506100d660048036038101906100d191906105e2565b6103df565b005b6100f260048036038101906100ed919061064e565b61049f565b005b60606000805480602002602001604051908101604052809291908181526020016000905b828210156102d457838290600052602060002090600302016040518060800160405290816000820160009054906101000a900460ff166003811115610186577f4e487b7100000000000000000000000000000000000000000000000000000000600052602160045260246000fd5b60038111156101be577f4e487b7100000000000000000000000000000000000000000000000000000000600052602160045260246000fd5b81526020016000820160019054906101000a900460ff161515151581526020016001820180546101ed906109a3565b80601f0160208091040260200160405190810160405280929190818152602001828054610219906109a3565b80156102665780601f1061023b57610100808354040283529160200191610266565b820191906000526020600020905b81548152906001019060200180831161024957829003601f168201915b505050505081526020016002820160009054906101000a900473ffffffffffffffffffffffffffffffffffffffff1673ffffffffffffffffffffffffffffffffffffffff1673ffffffffffffffffffffffffffffffffffffffff168152505081526020019060010190610118565b50505050905090565b600081815481106102ed57600080fd5b90600052602060002090600302016000915090508060000160009054906101000a900460ff16908060000160019054906101000a900460ff1690806001018054610336906109a3565b80601f0160208091040260200160405190810160405280929190818152602001828054610362906109a3565b80156103af5780601f10610384576101008083540402835291602001916103af565b820191906000526020600020905b81548152906001019060200180831161039257829003601f168201915b5050505050908060020160009054906101000a900473ffffffffffffffffffffffffffffffffffffffff16905084565b60006040518060800160405280866003811115610425577f4e487b7100000000000000000000000000000000000000000000000000000000600052602160045260246000fd5b8152602001851515815260200184848080601f016020809104026020016040519081016040528093929190818152602001838380828437600081840152601f19601f8201169050808301925050505050505081526020013373ffffffffffffffffffffffffffffffffffffffff1681525090505050505050565b60008082815481106104da577f4e487b7100000000000000000000000000000000000000000000000000000000600052603260045260246000fd5b906000526020600020906003020160020160009054906101000a900473ffffffffffffffffffffffffffffffffffffffff1690508073ffffffffffffffffffffffffffffffffffffffff166108fc349081150290604051600060405180830381858888f19350505050158015610554573d6000803e3d6000fd5b505050565b60008135905061056881610a58565b92915050565b60008135905061057d81610a6f565b92915050565b60008083601f84011261059557600080fd5b8235905067ffffffffffffffff8111156105ae57600080fd5b6020830191508360018202830111156105c657600080fd5b9250929050565b6000813590506105dc81610a7f565b92915050565b600080600080606085870312156105f857600080fd5b60006106068782880161056e565b945050602061061787828801610559565b935050604085013567ffffffffffffffff81111561063457600080fd5b61064087828801610583565b925092505092959194509250565b60006020828403121561066057600080fd5b600061066e848285016105cd565b91505092915050565b600061068383836107cc565b905092915050565b61069481610903565b82525050565b6106a381610903565b82525050565b60006106b4826108ad565b6106be81856108d0565b9350836020820285016106d08561089d565b8060005b8581101561070c57848403895281516106ed8582610677565b94506106f8836108c3565b925060208a019950506001810190506106d4565b50829750879550505050505092915050565b61072781610915565b82525050565b61073681610915565b82525050565b6107458161095e565b82525050565b6107548161095e565b82525050565b6000610765826108b8565b61076f81856108e1565b935061077f818560208601610970565b61078881610a33565b840191505092915050565b600061079e826108b8565b6107a881856108f2565b93506107b8818560208601610970565b6107c181610a33565b840191505092915050565b60006080830160008301516107e4600086018261073c565b5060208301516107f7602086018261071e565b506040830151848203604086015261080f828261075a565b9150506060830151610824606086018261068b565b508091505092915050565b6000602082019050818103600083015261084981846106a9565b905092915050565b6000608082019050610866600083018761074b565b610873602083018661072d565b81810360408301526108858185610793565b9050610894606083018461069a565b95945050505050565b6000819050602082019050919050565b600081519050919050565b600081519050919050565b6000602082019050919050565b600082825260208201905092915050565b600082825260208201905092915050565b600082825260208201905092915050565b600061090e82610934565b9050919050565b60008115159050919050565b600081905061092f82610a44565b919050565b600073ffffffffffffffffffffffffffffffffffffffff82169050919050565b6000819050919050565b600061096982610921565b9050919050565b60005b8381101561098e578082015181840152602081019050610973565b8381111561099d576000848401525b50505050565b600060028204905060018216806109bb57607f821691505b602082108114156109cf576109ce610a04565b5b50919050565b7f4e487b7100000000000000000000000000000000000000000000000000000000600052602160045260246000fd5b7f4e487b7100000000000000000000000000000000000000000000000000000000600052602260045260246000fd5b6000601f19601f8301169050919050565b60048110610a5557610a546109d5565b5b50565b610a6181610915565b8114610a6c57600080fd5b50565b60048110610a7c57600080fd5b50565b610a8881610954565b8114610a9357600080fd5b5056fea26469706673582212202b0f044e2782397668a1554d8b89a3a32326f1c791126e2f7858f3deb006e0c164736f6c63430008040033",
  "linkReferences": {},
  "deployedLinkReferences": {}
}